:020000040800F2
:10000000600D0020010100088D160008B50F0008E2
:1000100025110008A9010008951C00080000000037
:10002000000000000000000000000000611800084F
:10003000D501000800000000AF1600087D18000878
:100040001B0100081B0100081B0100081B01000820
:100050001B0100081B0100081B0100081B01000810
:100060001B0100081B0100081B0100081B01000800
:100070001B0100081B0100081B0100081B010008F0
:100080001B0100081B0100081B0100081B010008E0
:100090001B0100081B0100081B0100081B010008D0
:1000A0001B0100081B0100081B0100081B010008C0
:1000B0001B0100081B0100081B0100081B010008B0
:1000C0001B0100081B0100081B0100081B010008A0
:1000D0001B010008711C00087D1C0008891C000819
:1000E0001B0100081B0100081B010008DFF80CD0F1
:1000F00000F048F8004800476D200008600D00201F
:100100000648804706480047FEE7FEE7FEE7FEE7B1
:10011000FEE7FEE7FEE7FEE7FEE7FEE72D19000833
:10012000ED000008D2B201E000F8012B491EFBD21D
:1001300070470022F6E710B513460A4604461946F2
:10014000FFF7F0FF204610BD421C10F8011B0029EC
:10015000FBD1801A704730B50B46014600202022A3
:10016000012409E021FA02F59D4205D303FA02F5C4
:10017000491B04FA02F52844151EA2F10102F1DC24
:1001800030BD0000064C074D06E0E06840F001037A
:1001900094E8070098471034AC42F6D3FFF7AAFF63
:1001A000D0230008F0230008FEE7000030B5024627
:1001B0004FF6FF70064D07E012F8013B040A43407A
:1001C000DBB235F813006040491EC9B2F4D230BD2D
:1001D000B821000870477047014840687047000028
:1001E000240000200A2804D2074931F81020012AEF
:1001F00001D000207047044A143A32F8102021F848
:1002000010200120704700004004002010B590F835
:1002100021100024022903D00421816301243DE040
:1002200001680A6822F00E020A6001680A6822F07A
:1002300001020A601A4A0168914201D1012121E0BC
:10024000174A1432914201D110211BE0144A28327E
:10025000914201D1891515E0114A3C32914201D1F8
:1002600089140FE00E4A5032914202D14FF480318E
:1002700008E00B4A6432914202D14FF4801101E050
:100280004FF08071064A083A5160012180F8211030
:10029000002180F82010416B01B18847204610BD35
:1002A000080002402DE9F84FDFF890A100220AF182
:1002B000040B144601274FF00F090BF1040E00BF89
:1002C0000B6807FA04F52B40AB4274D1DFF870C11C
:1002D0004E68A6EB0C0866452BD00DDC032E34D0FF
:1002E00005DC36B3012E19D0022E2FD11BE0112EC2
:1002F00016D0122E2AD119E0B8F5881F19D006DCC5
:10030000B8F5803F15D0B8F5801F1FD111E0B8F5C2
:10031000001F0ED0B8F5041F18D10AE0CA6815E016
:10032000CA68121D12E0CA6808320FE0CA680C32AF
:100330000CE08A682AB1012A4FF0080203D0456117
:1003400004E0042202E0056100E00022FF2B01D856
:10035000064601E000F104064FEA840501D9A5F143
:100360002005D6F800C009FA05F82CEA080C02FAB4
:1003700005F54CEA050CC6F800C04D68ED0057D5F0
:10038000304DAE6946F00106AE61AD6924F003065A
:1003900005F0010500952C4D06EB050CDCF8085026
:1003A000A6074FEA167809FA08F6B543274EB04279
:1003B00002D1002610E03BE0254EB04201D10126DB
:1003C0000AE0244EB04201D1022605E0224EB0429E
:1003D00001D1032600E0042606FA08F62E43CCF8E5
:1003E00008604D68DAF80060ED03554601D51E43FC
:1003F00000E09E432E604D68DBF80060AD035D4673
:1004000001D51E4300E09E432E604D68DEF800607B
:10041000ED02754601D51E4300E09E432E604D68F7
:10042000AD020E4D2E6801D51E4300E09E432E60A6
:10043000641C102CFFF444AFBDE8F88F00040140A9
:1004400000001110001002400000014000080140AF
:10045000000C014000100140001401400C04014058
:10046000C2684A40C26070470AB10161704709041E
:10047000FBE7000001488068704700002C00002066
:1004800070B5040011D021684CF6CC40086021689A
:1004900045F255500860D4E9000141602168A06828
:1004A0008860FFF7E7FF054609E0012070BD00BF47
:1004B000FFF7E0FF401B302801D9032070BD206802
:1004C000C0680028F4D121684AF6AA2008600020FC
:1004D00070BD00684AF6AA21016000207047000044
:1004E0000248816802781144816070472C00002026
:1004F000074810B5016841F010010160032000F0C9
:1005000073F8002000F006F800F024F8002010BD79
:100510000020024070B50D4D04464FF47A712878E2
:10052000B1FBF0F00A490968B1FBF0F000F0FCFA09
:1005300048B9102C07D200222146501E00F034F892
:1005400000206C6070BD012070BD00002C000020F8
:10055000380000200C4808B5816941F00101816133
:10056000816901F001010091C16941F08051C161CF
:10057000C06900F0805000900448416821F0E061BB
:1005800041F00071416008BD0010024000000140D0
:1005900000F01F02012191404009800000F1E0209D
:1005A000C0F8001170470000F0B40E4B1B680C46F9
:1005B000C3F30223C3F10705042D00D90425191D37
:1005C000072901D2002300E0DB1E012606FA05F10F
:1005D000491E214099409E40761E16403143F0BC92
:1005E00001F055B80CED00E0064900F0070208687C
:1005F0004FF6FF03184040EA0220034A1043086008
:10060000704700000CED00E00000FA052DE9F0470E
:10061000DFF8548105460E46D8F8000000F00700C8
:10062000B0420CD2D8F8001021F007013143C8F8CD
:100630000010D8F8000000F00700B0426FD1286821
:100640004A4C810712D5400703D5606840F4E0604A
:1006500060602878000703D5606840F460506060EF
:100660006068A96820F0F000084360602878C0073F
:1006700044D06868012816D02168022816D089075E
:1006800000294CDA616821F0030101436160FFF742
:10069000F1FE6968074641F2883001290ED002292F
:1006A000814618D026E021688903E9E78901E7E758
:1006B000FFF7E0FEC11B494501D918E0814660689B
:1006C000C0F381000128F3D118E000BFFFF7D2FE8C
:1006D000C11B49450BD86068C0F381000228F5D1E1
:1006E0000CE000BFFFF7C6FEC11B494502D903203D
:1006F000BDE8F087606810F00C0FF3D1D8F8001057
:10070000404601F00701B1420BD9016821F0070111
:1007100031430160006800F00700B04201D00120C1
:10072000E6E72878400705D56068E96820F4E060CE
:10073000084360602878000706D56068296920F4BE
:10074000605040EAC100606000F036F86168084A15
:10075000C1F30311515CC840064908600020FFF74F
:10076000D9FE0020C4E70000002002400010024033
:10077000B82300083800002004480549006849688B
:10078000044AC1F30221515CC84070473800002080
:1007900000100240C8230008044805490068496861
:1007A000044AC1F3C221515CC840704738000020A0
:1007B00000100240C823000812A185B00FC98DE8BF
:1007C0000F0014A0144A006804905168134801F007
:1007D0000C03042B10D0082B0ED1C1F38343C903A3
:1007E0001DF803000AD5516804AAC1F34041515CC9
:1007F0000A4A5043B0FBF1F005B07047084948433E
:10080000FAE7000002030405060708090A0B0C0DAD
:100810000E0F1010010200000010024000127A00BA
:1008200000093D002DE9F84F04460078B94DC00796
:1008300048D06868C0F38100012807D06868C0F319
:100840008100022809D16868C00306D528688003A2
:1008500038D5606800286FD034E06068B0F5803F1C
:100860000BD010B1B0F5A02F11D0286820F4803043
:100870002860286820F4802002E0286840F4803056
:100880002860606888B1FFF7F5FD064609E0286832
:1008900040F480202860F0E7FFF7ECFD801B64281F
:1008A00075D828688003F7D50CE0FFF7E3FD06460E
:1008B00005E000BFFFF7DEFD801B6428F0D8286844
:1008C0008003F7D42078944E80074FF001094FF051
:1008D00000083BD5686810F00C0F07D06868C0F3BB
:1008E0008100022809D16868C00306D428688007FF
:1008F00014D5206901281FD110E02069B0B1C6F8D5
:100900000090FFF7B7FD074605E000BFFFF7B2FD17
:10091000C01B0228C4D828688007F7D528686169F9
:1009200020F0F80040EAC10028600FE0C6F800801F
:10093000FFF7A0FD074606E0E9E000BFFFF79AFDDC
:10094000C01B022823D828688007F7D42078000726
:100950002CD57248A169D9B1C0F80090FFF78AFD83
:10096000074604E0FFF786FDC01B02280FD8686A1F
:100970008007F7D56A484FF4FA510068B0FBF1F0F0
:10098000009000BF0098411E0091FAD20EE080E076
:10099000C0F80080FFF76EFD074604E0FFF76AFD30
:1009A000C01B022875D8686A8007F7D420784007F2
:1009B00060D5E8690027C00008D4E86940F080509D
:1009C000E861E869012700F080500090554801680F
:1009D000C90513D40168834641F480710160FFF7B3
:1009E00049FD824606E000BFFFF744FDA0EB0A0088
:1009F00064284ED8DBF80000C005F5D5E068012872
:100A00000AD008B1052813D0286A20F00100286216
:100A1000286A20F0040002E0286A40F00100286201
:100A2000E06841F2883B98B1FFF724FD82460BE075
:100A3000286A40F004002862EEE700BFFFF71AFDC5
:100A4000A0EB0A0159455AD8286A8007F6D50CE070
:100A5000FFF710FD824605E0FFF70CFDA0EB0A0151
:100A600059454CD8286A8007F6D41FB1E86920F0B0
:100A70008050E861E06988B36968C1F381010229A7
:100A800045D00228C6F8608004D0FFF7F3FC044686
:100A900038E034E0FFF7EEFC074604E0FFF7EAFC3D
:100AA000C01B02282BD828688001F7D4206AB0F533
:100AB000803F05D16868A16820F400300843686071
:100AC000D4E908010843696821F474110843686097
:100AD000C6F86090FFF7CEFC044606E015E000BFC4
:100AE000FFF7C8FC001B022809D828688001F7D549
:100AF0000BE000BFFFF7BEFC001B022802D9032059
:100B0000BDE8F88F28688001F4D40020F8E70120C0
:100B1000F6E700000010024000004242800442421A
:100B2000380000200070004010B5401EB0F1807FFA
:100B300001D3012010BD4FF0E02460610F21601748
:100B400000F0A5FD0020A06107202061002010BD5D
:100B50007047000070B5026804461068D168536998
:100B600010F00F0F51D003F0010501F490763543DA
:100B70005DD0C20705D0CA0503D5E26B42F0010281
:100B8000E263420705D5DA0703D0E26B42F00202C6
:100B9000E263820705D5DA0703D0E26B42F0040274
:100BA000E263020705D5DA0703D0E26B42F00802E0
:100BB000E263E26B002A34D0800604D5880602D5B1
:100BC000204600F0EDFE20684069E16BC0F3801024
:100BD00001F008010143204624D000F0D3FE206834
:100BE000416949061AD5416921F040014161606BB4
:100BF000A0B11B494163606BFFF708FB002810D0D0
:100C0000606B416BBDE87040084783060FD58B06CB
:100C10000DD52046BDE8704000F0C2BE2046FFF76B
:100C200097FF70BDFFF794FF0020E06370BD0306DF
:100C300006D50B0604D52046BDE8704000F0B4BFD1
:100C40004006F3D54806F1D5D168204621F0400191
:100C5000D160202184F8391000F0ABF970BD00009C
:100C60007519000870B5040004D094F83900002507
:100C700010B106E0012070BD84F83850204600F025
:100C800023F8242084F839002068C16821F4005139
:100C9000C160204600F0D0FE2068016921F4904137
:100CA00001612068416921F02A0141612068C16821
:100CB00041F40051C160E563202084F8390084F8D4
:100CC0003A00002070BD0000F0B585B0002400940B
:100CD0000194029403940368424F02204249032284
:100CE000424D4602BB4225D18B6943F480438B6160
:100CF0008B6903F4804304938B6943F004038B6195
:100D00008969039201F0040104910102CDE9001008
:100D100069462846FFF7C6FACDE9006469462846C9
:100D20000294FFF7BFFA002211462520FFF73CFC92
:100D3000252028E02E4FBB4229D1CB6943F4003354
:100D4000CB61CB6903F4003304938B6943F0040354
:100D50008B618969039201F0040104910421CDE9BA
:100D6000001069462846FFF79DFA0820CDE90004E7
:100D7000694628460294FFF795FA0022114626207C
:100D8000FFF712FC2620FFF703FC05B0F0BD194D5C
:100D9000AB42FAD1CB6943F48023CB61CB6903F436
:100DA000802304938B6943F008038B618969124D9A
:100DB00001F00801CDE90321CDE90060694628462C
:100DC000FFF770FAE814CDE900046946284602945A
:100DD000FFF768FA002211462720FFF7E5FB2720DE
:100DE000D1E7000000380140001002400008014037
:100DF0000044004000480040000C014090F83A30A8
:100E0000202B22D1F9B1F2B190F83830012B1CD04F
:100E100081628285C2850021C163222280F83A2046
:100E200080F838100168CA6842F48072CA600168AC
:100E30004A6942F001024A610068C16841F020013C
:100E4000C1600020704701207047022070470000F9
:100E50002DE9F04105462148854202D1204800F0A5
:100E600075FB20481E4EDFF88080204C4FF48047F1
:100E7000854216D139464046FFF7F2FAE278716BA7
:100E80002823207903EB42028852A07806F51572D8
:100E900021791154401CA0700122211D1148FFF737
:100EA000ADFF1348854217D139464046FFF7D8FABF
:100EB000104AE078617950231154401CC0B2E070B0
:100EC000726B03EB40001152BDE8F041074901226B
:100ED000491D0748FFF792BFBDE8F0819000002050
:100EE00010010020500000200010014004000020EC
:100EF000D0000020C80300202DE9F843044690F8F4
:100F000039001F4616460D46202850D1A5B19EB186
:100F100094F8380001284AD0012084F838004FF0B6
:100F20000008C4F83C80212084F83900FFF7A2FAB9
:100F3000A6848146E68426E00120BDE8F883E08CA3
:100F4000401EE084A0684B46B0F5805F4FF0000281
:100F50004FF080012046009703D000F056FEE8B91C
:100F60000DE000F052FEC8B928882168C0F30800DF
:100F70004860206908B16D1C05E0AD1C03E02168E4
:100F800015F8010B4860E08C0028D8D14B460022B0
:100F900040212046009700F038FE08B10320CCE73E
:100FA000202084F8390084F838800020C5E702202A
:100FB000C3E77047FEE700002DE9F04186B000244A
:100FC00020480094019402940394816941F0100137
:100FD0008161816901F010010491816941F004018E
:100FE0008161816901F004010491816941F0080186
:100FF00081618069144F00F008004FF4C0450490EF
:10100000002229463846FFF72FFADFF840800022F9
:1010100030214046FFF728FA009502260125039665
:10102000CDE9015469463846FFF73CF93020CDE957
:101030000005CDE9024669464046FFF733F906B0A0
:10104000BDE8F0810010024000100140000C01409A
:10105000094810B5074901600021416040F6FF7161
:101060008160FFF70DFA002803D0BDE81040FFF7BC
:10107000B2B810BD00300040440000200C4910B54B
:101080000A4AC1E90020002088600C22C860C1E93A
:1010900004028861C8610846FFF7E4FD002803D018
:1010A000BDE81040FFF797B810BD000000380140C0
:1010B000500000200C4910B50A4AC1E90020002068
:1010C00088600C22C860C1E904028861C8610846D2
:1010D000FFF7C8FD002803D0BDE81040FFF77BB83C
:1010E00010BD000000440040900000200C4810B5E6
:1010F0000A4901604FF416414160002181600C22D1
:10110000C160C0E904128161C161FFF7ABFD002835
:1011100003D0BDE81040FFF75EB810BD00480040A6
:10112000D0000020FEE700002DE9F35F4FF0010A38
:101130000446A0F804A04FF4164B00250A26C0F878
:1011400000B0C4E902560661142000F0FFFF42F22D
:101150000F77606160B3E1684900FEF7EAFF00BF06
:101160004FF0C808C4E90A584FF4C8794846C4F893
:10117000308000F0EBFF6063E0B1E16A4900FEF708
:10118000D8FF00BFC4E906584846C4F8208000F0E4
:10119000DDFF606280B1E1694900FEF7CAFF2168A6
:1011A0000520594514D009DCB1F5165F0CD10EE0CD
:1011B000E760D5E7E762E5E7E761F0E7B1F5614FA2
:1011C00006D0B1F5E13F03D084F8446202E00F207D
:1011D00084F8440284F8405284F84352A4F84652FA
:1011E00084F848A204F13800C4F8380204F59C7071
:1011F000C4F83C020198C4F8500202B00122BDE8D4
:10120000F05F0149FFF7FABD00000020F0B5D0F80B
:1012100038420546607870B3C11F08292BD31028C7
:1012200029D895F84102A0F10801F3296BD2801E5C
:10123000C1B22046FEF7BAFF014695F84122A01E32
:101240001044008881425ED16088637841BAA088EA
:10125000012240BA012B10D0022B0ED00826052BFC
:1012600047D00F2B5ED0032B7ED0042B7DD0062BD6
:101270007CD0102B7BD00120F0BDB0F5707F42D820
:10128000AB688B4274DC2E690B18B34270DCA31C74
:1012900046074FEAD00600D0761C03F8016B2E8972
:1012A000891B8EB200210F461CE000BFD5F814C088
:1012B0003CF816C0BCF1000F93F800C002FA01FE22
:1012C00002D04CEA0E0C01E02CEA0E0C491CC9B20B
:1012D00083F800C0082901D300215B1C761C7F1C09
:1012E000B6B2BFB28742E1D3A078401D85F8420272
:1012F00016E0AB688B423BDC2C698C4238DDB0F5E4
:101300007F4F01D028B15DE06869C91A20F811202B
:1013100004E000206A69C91A22F8110085F84262C7
:101320000020F0BDAF688F427FDCD5F810C00B18ED
:1013300063457ADCC91BD5F814C000230CEB4107C8
:101340001946E41D19E000BF94F800C002FA03FE3C
:101350001CEA0E0C01D04FF0010C5B1CDBB227F82D
:1013600002CB082B07D304E00AE029E04AE054E06E
:101370005BE00023641C491C89B28142E4D3CDE7C1
:101380007D281FD8AB6A8B424FDC2E6B0A18B24205
:101390004BDCA21C6E6BC91A06EB4103410002F83C
:1013A000011B002109E01E88360A02F8016B13F8C0
:1013B000026B491C02F8016B89B28142F3D393E7B7
:1013C0007D2801D90320F0BDAB698B422DDC2E6A4C
:1013D0000A18B24229DCA21C6E6AC91A06EB410344
:1013E000410002F8011B002109E01E88360A02F8BC
:1013F000016B13F8026B491C02F8016B89B2814240
:10140000F3D371E7AB6A8B420FDC2C6B8C420CDDA3
:101410006C6BC91A24F811001EE0AB6A8B4204DC25
:10142000D5F830C00F18674501DD0220F0BDC91A9C
:101430006F6B002307EB4101E41D0BE014F8017B07
:101440003F020F8014F801CB5B1C47EA0C0721F820
:10145000027B9BB28342F1D385F848225EE770B5E8
:101460000446B0F8460294F84412884262D9D4E99E
:101470008E10C4E98E0194F84012002684F84112BF
:10148000012284F8406284F84322082950D300786E
:10149000B4F9041088424BD1FEF79EFE0546204663
:1014A000FFF7B4FE84F84502D0B1D4F83802417891
:1014B00041F080014170D4F8381294F845028870E8
:1014C000D4F83802032104F50E74FEF76FFE21688C
:1014D000C8702168000A052208712168A06917E018
:1014E00094F84202801EC1B2D4F8380204F50E749A
:1014F000FEF75CFEA27A2168114401F8020CA27A80
:101500002168000A114401F8010CA27A2168A0693F
:10151000A4F50E7400F0BFFBB4F84C02E26A616BF4
:101520006FF00103281A03EB42028852C4F84C52B0
:10153000A4F8466270BD00000348B0F84612491C8A
:10154000A0F84612704700001001002030B490F857
:101550004312002291B10E49B0F904400B789C422D
:1015600004D090F8401209B980F8432290F8404224
:10157000D0F83C52611C80F840122B55A0F846224E
:10158000D0F8500230BC01220149FFF737BC0000FF
:101590000000002010B59AB017491848FFF7C4FDA5
:1015A000164C17A16846B4F90420236800F094FB98
:1015B0006946114800F07CFBD4E9022318A1684673
:1015C00000F08AFB69460C4800F072FBD4E90A235C
:1015D0001BA1684600F080FB6946074800F068FBE5
:1015E000D4E906231EA1684600F076FB694602484E
:1015F00000F05EFB1AB010BD90000020100100202A
:101600000D0A53746174696F6E204E6F3A20256421
:101610002C2042617564726174653A202564000073
:101620000D0A436F696C2053746172742061647297
:101630003A202534642C204C656E3A202534640011
:101640000D0A5265672020537461727420616472C0
:101650003A202534642C204C656E3A2025346400F1
:101660000D0A526F6D202053746172742061647290
:101670003A202534642C204C656E3A2025346400D1
:101680000148FFF7ECBE0000100100207047090779
:10169000090E002806DA00F00F0000F1E02080F8C3
:1016A000141D704700F1E02080F800147047704767
:1016B00070B506210E48FEF779FD0D490025A1F110
:1016C00010048871000AC871A570FEF785FDA0603E
:1016D000062104F11800FEF769FD04F11801887174
:1016E000000AC871E570FEF777FDE06070BD00008C
:1016F000140000202DE9F041364C35490026636B7B
:101700008A7801271A85656BCB780128A5F85030B7
:1017100032D002282ED18846112B2BD304F52E75FA
:101720002878022826D16878032823D1A8780C28A5
:1017300020D1FEF751FDB8F80C20636B821A4146A8
:101740009A84C8F80C0001205FF0140205EB4003F6
:1017500002EB4008B3F80330D4F834C05BBA401C45
:101760002CF808300628F1DB606B028C521C0284D6
:101770004F70CE70BDE8F0818846112AFAD3164D1D
:1017800028780128F6D168780328F3D1A8780C28A6
:10179000F0D1FEF721FDB8F80820636B821A4146AC
:1017A0001A82C8F80800012005EB4002636BB2F80A
:1017B000032052BA23F81020401C0628F4DB626B89
:1017C0009089401C90810F7088F80260D2E7000079
:1017D00004000020100100206403002010B51C4C00
:1017E00000211C4A646B4FF6FF73012804D00228C5
:1017F0002DD15078A8B117E0107810B9E089401CBD
:10180000E081117091701349082210311248FFF7DE
:1018100073FB08B1FEF7DFFC0E490122091D0E48DB
:1018200011E0608C401C60845170D170094908221D
:1018300018310A48FFF760FB08B1FEF7CCFC0549F8
:1018400001220648491DBDE81040FFF7D7BA10BD78
:10185000100100200400002050000020D0000020D3
:10186000704700000A2806D2034A491C22F81010CB
:10187000143222F8101070472C04002010B5FEF727
:101880002FFEFFF759FE0C484168491C4160016872
:1018900011B90168491E01600849002031F8102083
:1018A000012A04D931F81020521E21F81020401CC2
:1018B0000A28F3DB10BD00002400002040040020B3
:1018C000084A10B50020014602F1140302F1280471
:1018D00022F8101023F810102154401C0A28F7DBBE
:1018E00010BD00002C04002010B590B028216846DF
:1018F000FEF71FFC14210AA8FEF71BFC0A2000902B
:1019000001200024CDE906041021CDE90401684638
:10191000FEF788FF0F20CDE90A040C940D940021F6
:101920000AA80E94FEF772FE10B010BD0D480168B3
:1019300041F00101016041680B4A114041600168BA
:101940000A4A11400160016821F480210160416868
:1019500021F4FE0141604FF41F0181600449C0037E
:1019600008607047001002400000FFF8FFFFF6FE1D
:1019700008ED00E010B5406A0021C185C184FFF781
:10198000E7F810BD0168CA6822F49072CA60016865
:101990004A6922F001024A61202180F83A1070471A
:1019A00010B590F83A10222901D0022010BD8168AC
:1019B000B1F5805F11D00169002901681FD0496825
:1019C00001F07F03816A4A1C82620B70C18D491E3F
:1019D0000904090CC18518D02BE00269816A002A2C
:1019E0000268526805D0D2B20A80816A491C8162BD
:1019F000ECE7C2F308020A80816A891CF7E74A68AB
:101A0000816A4B1C83620A70E0E70168CA6822F0B1
:101A10002002CA600168CA6822F48072CA60016844
:101A20004A6922F001024A61202180F83A10FFF74A
:101A30000FFA002010BD00002DE9F04104460068B7
:101A40000169E26821F44051114301612169A068F4
:101A50000843616908432168CA6841F20C639A43EC
:101A60000243CA6020684169A26921F440711143B0
:101A700041614C4920686425322688423CD1FEF7FA
:101A80008BFE00EBC00101EB001061688900B0FB28
:101A9000F1F7FEF781FE00EBC00101EB0010616879
:101AA000B0468900B0FBF1F0B0FBF5F06FF0180123
:101AB000484307EB800106EB0110B0FBF5F000F0A6
:101AC000F006FEF769FE00EBC00101EB0010616853
:101AD0008900B0FBF1F0B0FBF5F006EB0016FEF765
:101AE0005BFE00EBC00101EB001061688900B0FBF8
:101AF000F1F7FEF751FE3BE0FEF73EFE00EBC001C2
:101B000001EB001061688900B0FBF1F7FEF734FECD
:101B100000EBC00101EB00106168B0468900B0FB2A
:101B2000F1F0B0FBF5F06FF01801484307EB8001CE
:101B300006EB0110B0FBF5F000F0F006FEF71CFE1E
:101B400000EBC00101EB001061688900B0FBF1F00F
:101B5000B0FBF5F006EB0016FEF70EFE00EBC00141
:101B600001EB001061688900B0FBF1F7FEF704FE9D
:101B700000EBC00101EB001061688900B0FBF1F0DF
:101B8000B0FBF5F06FF01801484307EB800108EB5C
:101B90000110B0FBF5F0216800F00F0030448860C0
:101BA000BDE8F0810038014090F83910212901D0BA
:101BB000022070478168B1F5805F016A0BD04A1C32
:101BC0000262026809785160C18C491E0904090C3F
:101BD000C1840ED017E009880268C1F30801516082
:101BE00001690029016A02D0491C0162ECE7891CE5
:101BF000FBE70168CA6822F08002CA600068C16819
:101C000041F04001C160002070472DE9F041984645
:101C100017460E460446069D1DE0681C1BD02DB1DC
:101C2000FEF728FCA0EB0800A84214D92068C16880
:101C300021F4D071C1602068416921F00101416146
:101C4000202084F8390084F83A00002084F8380015
:101C50000320BDE8F0812068006836EA000004D067
:101C60000020B842D9D00020F3E70120F9E70000B6
:101C70000148FEF76FBF0000500000200148FEF74A
:101C800069BF0000900000200148FEF763BF00001C
:101C9000D0000020FEE710B592B24FF6FF73FFF7B9
:101CA0002BF9002803D0BDE81040FEF794BA10BD10
:101CB00070B505460C460846FEF746FA82B24FF666
:101CC000FF7321462846FFF717F9002803D0BDE827
:101CD0007040FEF780BA70BD0FB4084B10B504A970
:101CE00002AA039800F01CF8044602A9002000F0A4
:101CF000B8F9204610BC5DF814FB00006320000812
:101D000002E008C8121F08C1002AFAD170477047C4
:101D1000002001E001C1121F002AFBD17047000022
:101D20002DE9FF4F8BB088460546002606E02528A2
:101D30000BD0DDE90D1290476D1C761C2878002829
:101D4000F5D10FB03046BDE8F08F0024A146A24681
:101D50000122AE4900E0044315F8013F203B02FA9E
:101D600003F00842F7D128782A2810D06FF02F020C
:101D70002878A0F13001092915D809EB890102EB77
:101D8000410144F0020400EB01096D1CF0E758F832
:101D9000041B5FEA010903D544F40054C9F10009AA
:101DA00044F002046D1C28782E2817D115F8010F75
:101DB00044F004042A280ED06FF02F022878A0F1F6
:101DC000300109290AD80AEB8A0102EB410100EB34
:101DD000010A6D1CF2E758F804AB6D1C28786C28DA
:101DE0000FD006DC4C2817D068280DD06A2814D1F3
:101DF00004E0742810D07A280FD10DE044F40014C8
:101E00000AE044F4801401E044F44014697881420B
:101E100002D104F580146D1C6D1C2878692865D0EA
:101E200006DC00288DD0632827D0642806D15DE029
:101E30006E2808D073282AD0752877D0DDE90D12D6
:101E40009047761CE0E0C4F30250022809D0032832
:101E50000DD0D8F8001004280DD00E6008F1040849
:101E6000D2E0D8F80010F217C1E90062F6E7D8F81E
:101E700000100E80F2E70E70F0E718F8041B8DF8E2
:101E8000001000208DF80100EB46012003E058F817
:101E900004BB4FF0FF3061074FF0000701D40AE0A8
:101EA0007F1C57450DDA8742FADB1BF80710002923
:101EB000F6D106E07F1C8742FCDB1BF807100029E7
:101EC000F8D1DDE90D23A9EB07008146214600F09A
:101ED000B1F83044C61904E0DDE90D121BF8010B1E
:101EE00090477F1EF8D22146484688E058F8040BF8
:101EF000C4F302514FF00A0B032900D100B20429A8
:101F000000D140B2002802DA40422D2102E0210532
:101F100005D52B218DF82410012104E006E0E1070E
:101F200010D02021F6E708AF089113E058F8040B11
:101F3000C4F302514FF00A0B032900D180B20429E7
:101F400000D1C0B20021EEE75946FEF704F9303166
:101F500007F8011D0028F7D1ADEB070000F1200BB9
:101F6000600702D524F4803401E04FF0010ADA451D
:101F700002DDAAEB0B0000E00020824600EB0B0123
:101F800008980144A9EB01000A90E00306D4DDE9BA
:101F90000D2321460A9800F04DF806444FF0000941
:101FA00008E009A911F80900DDE90D12904709F1CF
:101FB0000109761C08998945F3DBE0030CD5DDE9BE
:101FC0000D2321460A9800F035F8064404E0DDE9C7
:101FD0000D1230209047761CBAF10001AAF1010AD7
:101FE000F5DC05E0DDE90D1217F8010B9047761CD2
:101FF000BBF10001ABF1010BF4DC0A982146DDE9ED
:102000000D2300F005F806446D1C97E60928010031
:102010002DE9F041044600251E461746880404D4E5
:1020200005E039462020B0476D1C641EF9D52846CE
:10203000BDE8F0812DE9F041044600251E4690469A
:10204000C80301D5302700E02027880404D505E027
:1020500041463846B0476D1C641EF9D52846BDE898
:10206000F0810A68531C0B60107070470024FEF763
:102070003FFAFFF739FCFEF79FFF4FF4164528465D
:10208000FEF7FCFF2846FFF715F82846FFF72EF865
:10209000FEF7DEFFFFF714FCFFF77CFAFFF708FB03
:1020A00064210020FFF7DEFBE9110120FFF7DAFBD6
:1020B0004FF47A710220FFF7D5FB204D204E00BF70
:1020C000FFF7DEFA0120FFF715FB0220FFF712FBF6
:1020D0000020FEF787F8B0B11A48FEF7FAF9686BEE
:1020E000008808B1012200E0002210213046FEF7EE
:1020F000BBF9686B808A08B1012200E00022202130
:102100003046FEF7B1F90220FEF76CF820B14FF42B
:1021100000510D48FEF7A4F90120FEF763F80028EE
:10212000CED014F0010F04F1010404D05FF00200DE
:10213000FFF754FBC4E70120FAE70000100100207C
:10214000000C01404400002000100140F0B50B30AD
:10215000154D20F007010024144A0FE003688B425C
:102160000BD38B4205D95E1A43184768C3E9006751
:1021700000E04368136002C004E0021D10680028FC
:10218000ECD12046002802D1286808B10020F0BD1B
:10219000064A07481060074A121A22F00702C0E9EF
:1021A000002401202860D7E7400000203C000020E8
:1021B00064040020600900200000C1C081C140010A
:1021C00001C3C003800241C201C6C006800741C7E7
:1021D0000005C1C581C4400401CCC00C800D41CDB7
:1021E000000FC1CF81CE400E000AC1CA81CB400B87
:1021F00001C9C009800841C801D8C018801941D957
:10220000001BC1DB81DA401A001EC1DE81DF401FE6
:1022100001DDC01D801C41DC0014C1D481D54015F6
:1022200001D7C017801641D601D2C012801341D306
:102230000011C1D181D0401001F0C030803141F196
:102240000033C1F381F240320036C1F681F74037E6
:1022500001F5C035803441F4003CC1FC81FD403DB6
:1022600001FFC03F803E41FE01FAC03A803B41FB86
:102270000039C1F981F840380028C1E881E94029D6
:1022800001EBC02B802A41EA01EEC02E802F41EFE6
:10229000002DC1ED81EC402C01E4C024802541E5F6
:1022A0000027C1E781E640260022C1E281E3402306
:1022B00001E1C021802041E001A0C060806141A116
:1022C0000063C1A381A240620066C1A681A74067E6
:1022D00001A5C065806441A4006CC1AC81AD406DB6
:1022E00001AFC06F806E41AE01AAC06A806B41AB86
:1022F0000069C1A981A840680078C1B881B9407956
:1023000001BBC07B807A41BA01BEC07E807F41BFE5
:10231000007DC1BD81BC407C01B4C074807541B5F5
:102320000077C1B781B640760072C1B281B3407305
:1023300001B1C071807041B00050C1908191405195
:102340000193C053805241920196C05680574197E5
:102350000055C19581944054019CC05C805D419DB5
:10236000005FC19F819E405E005AC19A819B405B85
:102370000199C059805841980188C04880494189D5
:10238000004BC18B818A404A004EC18E818F404FE5
:10239000018DC04D804C418C0044C18481854045F5
:1023A0000187C047804641860182C0428043418305
:1023B0000041C18181804040000000000000000019
:1023C00001020304060708090000000001020304DB
:1023D000F02300080000002044000000001D000859
:1023E00034240008440000201C0D0000101D0008CB
:1023F00000000000010100000000000000000000DB
:1024000000000000010300000006000002030000BD
:1024100000060000000000000000000001000000B5
:10242000100000000000000000A24A0400000000AC
:0424300000000000A8
:04000005080000ED02
:00000001FF
